:020000040800F2
:100000005804002019120008391200083B12000899
:1000100000000000000000000000000000000000E0
:100020000000000000000000000000003D12000879
:1000300000000000000000003F120008411200080C
:10004000B3060008000000002F070008F7110008A1
:1000500003120008591200085B1200085D12000824
:10006000000000005F12000861120008631200081F
:1000700065120008671200086912000800000000FD
:100080006B12000800000000000000006D12000864
:10009000000000006F1200087112000873120008BF
:1000A0000000000075120008000000007712000830
:1000B000F1B582B0B14C0078C00700D4FEE08025D5
:1000C000AD0260680C210140042907D060680C2152
:1000D000014008290BD16068C00308D5206805409D
:1000E00038D002984068002826D10120FEBD029831
:1000F0004168012902D1206869080BE0A048A14AA3
:1001000000290AD0052908D120686900014321602F
:100110002068D1430143216005E021680A40226044
:100120002168084020600298406800280DD000F047
:1001300079FA06002068284000D0BFE000F072FA8B
:10014000801B6528F6D30320FEBD00F06BFA060085
:100150002068284000D1B1E000F064FA801B6528D7
:10016000F6D3F0E700F05EFA801B022800D8D6E054
:10017000E9E70298C068002820680FD001210143F8
:10018000216000F04FFA06002068800700D5AEE03D
:1001900000F048FA801B0228F6D9D4E701218843F1
:1001A000206000F03FFA06002068800700D4A6E037
:1001B00000F038FA801B0228F6D9C4E701218843F1
:1001C000606200F02FFA0600606A800700D4AAE09F
:1001D00000F028FA801B0228F6D9B4E70420C043B7
:1001E0000122D24300290AD0052908D1206A04211E
:1001F00001432162206A01210143216205E0216A55
:100200000A402262216A08402062954F0298806865
:1002100000280CD000F006FA0600206A800700D5FE
:10022000B9E000F0FFF9801BB842F6D38BE700F08D
:10023000F9F90600206A800700D4ACE000F0F2F97A
:10024000801BB842F6D37EE700F0ECF9801B022851
:1002500000D8BDE077E700F0E5F9801B022800D860
:10026000D6E070E70421C9438842606B03D10421C2
:1002700088436063B0E0042101436163606B012146
:100280008843606300F0CEF90600606B800700D4FD
:10029000A9E000F0C7F9801B0228F6D953E7014016
:1002A000216000F0BFF906002068800100D4D4E08E
:1002B00000F0B8F9801B0228F6D944E70C25029813
:1002C000007880071BD56068284008D06068284007
:1002D000082800D04DE76068C00300D549E72068D2
:1002E000800704D50298C068012800D0FDE6206888
:1002F000F821884302990969C900014321600298E5
:10030000007800070FD50298C0690028606A00D104
:1003100054E701210143616200F084F90600606A3C
:10032000800700D41EE70298007840073AD50020E5
:10033000009080204005E169014008D1E169014356
:10034000E161E16908400090009801200090904828
:100350000068C00518D48E480068A10D01438C4880
:10036000016000F05FF9060089480068C0050BD401
:1003700000F058F9801B6528F6D3E4E6001002402F
:10038000FFFFFBFFFFFFFEFF02988168012900D0FD
:1003900024E7206A30E70098002803D0E0698D49FF
:1003A0000140E16102980078C0061CD502984069BE
:1003B000F827FF43012800D054E7606B0421014374
:1003C0006163606B01210143616300F02BF906005A
:1003D000606B800700D437E7606B07400298806944
:1003E000C000384360630298006A002835D0616815
:1003F0000D40082D00D178E677490228206800D00A
:100400004DE70140216000F00DF906008025AD04A4
:100410002068284000D01EE7E06A0F218843029937
:10042000C96A0143E16260686C4901400298806AD0
:1004300008430299496A01436160206869080143E1
:10044000216000F0EFF806002068284005D100F098
:10045000E9F8801B0228F7D975E60020FEBD0000F0
:1004600089130000F3B581B00127FF4301245C49E3
:1004700009682140029A91420AD259490A683A40D1
:10048000029B13430B6009682140029A914272D18A
:100490000090544D022000990968014006D0696817
:1004A000F0229143009A92680A436A6000990968B1
:1004B000214050D000994968012902D12868800361
:1004C00003E0022903D12868800103D453E02A689D
:1004D000104050D06868032290430143696000F0E7
:1004E000A1F806000098406801280CD168680C212A
:1004F000014004292FD000F095F8801B3A4988422A
:10050000F4D30320FEBD022837D168680C210140D6
:10051000082920D000F086F8801B33498842F4D3A4
:10052000EFE700980078400706D568682F4901403A
:100530000098C0680843686000F02CF82C496A688D
:100540001206120F895CC8402A490860002000F09A
:100550006FF80020FEBD22480299026822409142B5
:10056000DFD201680F4002993943016000680440FE
:1005700002988442D5D00120FEBD68680C2101405C
:10058000E9D000F04FF8801B17498842F5D3B8E74F
:1005900000700040184B196818480C220A40082ABD
:1005A00000D0704730B50F2216A48D0C1540645D45
:1005B0009B6AC90307D500BF16A11A40895C00F0E9
:1005C0005DF8604330BD20000D49484330BD094807
:1005D00000687047FFFFFFEFFFFFFFFEFFFFC2FF56
:1005E000002002400010024089130000FFF8FFFFC6
:1005F00004110008000000200410024000127A00DC
:1006000000093D0002030405060708090A0B0C0D4A
:100610000E0F10100102030405060708090A0B0C4F
:100620000D0E0F1001480068704700BF54000020F5
:1006300010B50400FFF7CBFFFA21890000F01EF887
:1006400000F059F8002221000020C04300F04FF8CC
:10065000002010BDCA0F00D0494203105A400DD0EF
:1006600004B500D3404200F009F8009AD20701D344
:100670004942124200D5404204BD0000094214D054
:1006800088420FD30122030C01D10004120400237D
:1006900000185B418B4200D35B1A5241F8D319001A
:1006A0001000704701000020704708B500F03EF8C8
:1006B00008BDFEE710B5C20018231340FF249C407C
:1006C000E2438907090E9940030007D5144B000740
:1006D000000F083880088000181803E011489B08B4
:1006E0009B00C01803681A401143016010BD80B51B
:1006F000FFF7E0FF01BD10B5401E8021490488428C
:1007000001D3012010BD084C606003210020C043CC
:10071000FFF7D0FF0020A0600721216010BD00007E
:100720001CED00E000E400E010E000E07047FEE7B0
:10073000F8B504000025002C01D10120F2BD2600EF
:1007400040367068002804D1B0603070200000F09E
:1007500022FA10217068084003D1226804209368AF
:10076000034000D092E077685F4B3B4002271F4375
:10077000776093689B079B0F012B05D11368DB07FC
:100780000FD4D3681B040CD4D3681827BB43A768C5
:100790001F43D760226813699B009B0867681F434B
:1007A00017612268D368834F1F40D760626B012AAC
:1007B00001D0830200E000232269022A01D10090C7
:1007C00000E00095226AA0698003E769FF03074300
:1007D000500338430343E0681843009B0343206BF6
:1007E00040001843636A012B0DD1002A03D1020097
:1007F0000803104307E07268202313437360B26854
:1008000001231343B360A26AFF23C2339A4203D089
:100810000300E06A104318432268D3680343D3609F
:10082000A26B0B069A420DD0012A0BD0022A09D0E6
:10083000032A07D0042A05D0052A03D0062A01D0AE
:10084000072A0CD1226853690727BB4353612268EA
:1008500053693827E75D7F077F0F1F4357610222E7
:10086000D24301232468E468534F2740874205D1CF
:10087000B56070680240134373600BE0706802401B
:1008800011437160B0681843B06002E070680143C2
:10089000716001252800F2BDF8B504000025002094
:1008A00004262168896831401BD14021615C0129FF
:1008B00017D02700403701213970E169012904D0A0
:1008C000200000F009F901000CD179683E4A0A4085
:1008D000B10111437960BD603D701C212268116037
:1008E0006CE00220F2BD0000FFFEFFFFF3B583B015
:1008F00004464034202700250126406908280BD0F3
:1009000003980068C068304005D06068074367609E
:10091000257001202EE00C200090FFF783FE049943
:1009200004910190039801680868009A024023D15D
:1009300004980021C9438842F4D0002806D0FFF76C
:1009400071FE0199401A04998142EBD2606804213A
:1009500001436160257003200CE061680F4367600C
:10096000A1680E43A6608169002902D10C210068AC
:100970000160002005B0F0BD039862687302134364
:100980006360CA68C0231B011340ECD1026A002ACD
:10099000E9D10A681207E6D58A685207DDD44A68A9
:1009A0000C239A434A606168084A0A40164366600D
:1009B000D9E700001902FEFFE7FF3F8321688A683C
:1009C00016438E60F2BD0000FEF1FFFFFFFEFFFF49
:1009D0000068006C7047FCB50400002500260095F7
:1009E0004020205C012801D10220F6BD01204023D7
:1009F000E054226893685B0761D4009109688840DD
:100A00000190534800994968524B9942916A019B61
:100A100046D00B439362A16B8022520591421FD0B6
:100A200001291DD002291BD0032919D0042917D070
:100A3000052915D0062913D0072911D022680721CE
:100A4000009B9B6857690F40BB4209D053698B4399
:100A5000536122685369009FBF683940194351614F
:100A600000990968102918D0112931D18021C903B2
:100A700002681143016000980068102828D13648A8
:100A800000683649FFF7FAFD0A21484300900098B4
:100A900000281DD00098401EF8E780210904E7E7F0
:100AA0009943916200990968102906D011290FD144
:100AB0002B490268114001600AE02A49F9E7210048
:100AC0004031496820220A43210040314A60012612
:100AD000402025543000F6BDF8B5050000200090F8
:100AE0002868012481688907890F012905D10168D7
:100AF00021402AD1C168090427D4102781681A4AE5
:100B00000A401AD181682143816013480068134963
:100B1000FFF7B4FD01E00098401E00900098002807
:100B2000F9D1FFF77FFD06002868006820400CD14E
:100B3000FFF778FD801B0328F6D3686C07436F64CA
:100B4000A86C0443AC640120F2BD0020F2BD00009B
:100B500008270140011000000000002040420F0063
:100B6000FFFFBFFFFFFF7FFF1700008081B0012064
:100B70001E490A6802430A600A6810400090009803
:100B8000802040054A6802434A6049680840009056
:100B9000009801B0704710B586B0040001A8142178
:100BA00000F02AF82068124988421CD11148410DF2
:100BB00042680A43426042681140009100998021D6
:100BC000890202680A4302600068014000910098AF
:100BD00002200190032002900020039001A99020A0
:100BE000C00500F011F806B010BD0000181002405A
:100BF0000024014014100240002200BF094202D02C
:100C0000491E4254FCD17047FFB50A000023010081
:100C100031E0052403E0644CA142FAD10324AC4046
:100C200034430298046061480568019EF4432540FE
:100C30005668F60302D52E00019D354305604568D0
:100C400025405668B60302D52E00019D3543456008
:100C5000856825405668F60202D52E00019D354371
:100C60008560C5682C405568AD0202D52500019C01
:100C70002C43C4605B1C10680400DC4000D181E0A0
:100C8000012401259D400395054001950198002808
:100C9000F0D098006D4668705068022801D0122884
:100CA00011D1D80880000D18286A6E4677781C2666
:100CB0003E400F27B740B8431769BC463700664629
:100CC000BE4006432E620D6858006E463070032009
:100CD00037780326BE40F74302973E462E405568BC
:100CE00005406F463F78BD4035430D605568012D86
:100CF00005D0022D03D0112D01D0122D11D18E68F7
:100D0000029D3540D6686F463F78BE402E438E60C8
:100D10004D68039EB5435668360926409E402E43D3
:100D20004E60CE68029D354096686F463F78BE4063
:100D30002E43CE605568ED009CD51D4D2D68254392
:100D40001B4E3560356825400295029D194D9E0861
:100D5000B600AD1902952E686D466F780C253D40A2
:100D60000F27AF40BE439027FF05B94201D10024B1
:100D700055E7114FB942FBD0104CA14200D04AE7D1
:100D800002244CE7FFBD0069084000D00120C0B23A
:100D90007047002A01D081617047816270474269C3
:100DA0004A40426170470000000C004800040140C6
:100DB00018100240080001400004004800080048E4
:100DC000F0B597B001240020019000F05BF900F02D
:100DD00013F902A81421FFF70FFFA105A24802682A
:100DE0000A430260026811400091009961040268A0
:100DF0000A4302600268114000910099A104026850
:100E00000A4302600068014000910098974D00225B
:100E100001212800FFF7BDFF002208219448FFF7B9
:100E2000B8FF0294039400200490059002A92800C2
:100E3000FFF7EAFEE003029000200390049402A969
:100E40009020C005FFF7E0FE0820029003940020E8
:100E50000490059002A98648FFF7D6FE02A80C214F
:100E6000FFF7CAFE834F844878600020B860F860BE
:100E700038617C610420B8610020F86138627862D2
:100E8000B862FF20C230F862002038637863BC6328
:100E9000381DFFF74DFC02942003039000040490DA
:100EA00002A9381DFFF797FD04E0002208217048D1
:100EB000FFF76FFF802109029020C005FFF763FF55
:100EC0000500FFF7AFFB0600FFF7ACFB801B3228E5
:100ED000FAD39026F6050095802109023000FFF72D
:100EE00052FF0099C9B281420DD0FFF79BFB05006C
:100EF000FFF798FB401B3228FAD38021090230000B
:100F0000FFF741FF0500002D48D10126029600F0B1
:100F1000A1F8002802D1012000F090F803A8502188
:100F2000FFF76AFE0024FFF77DFB0500381DFFF781
:100F3000B3FCFA218900381DFFF7D8FC002840D106
:100F4000A0000090381DFFF743FD03A9009A8850C8
:100F500003A800994058494948434949401800D5D9
:100F60004042B921FFF776FB03A9009A8850FFF7AA
:100F700059FB401B0328FAD3641C142CD3D3002440
:100F8000002103A88A008058491C1429F9D3142190
:100F9000FFF760FB97280ADB012408E0002002909D
:100FA00000F058F8012802D1002000F047F8387806
:100FB000012809D1FFF736FB0199401AC9281AD335
:100FC00012E03E700024F5E70298002800D16CE79B
:100FD000200001D0012269E7FFF724FB0199401AA4
:100FE000FA218900884206D9FFF71CFB01900821ED
:100FF0001F48FFF7D4FE5DE710B590B004A830217C
:10100000FFF7FAFD68461021FFF7F6FD1220049065
:10101000012007900990102008900A9000240C9459
:1010200004A8FFF745F80720009001940294039468
:1010300000216846FFF716FA10B010BD80B5010018
:101040000A48012901D1012201E000220121FFF714
:10105000A0FE01BD80B501210448FFF794FE0128E0
:1010600000D0002002BD000014100240001400480F
:101070000004004804000020002401402503000073
:10108000E0CAE6FF80B50648016810220A43026004
:101090000020FFF7CDFAFFF769FD002002BD000038
:1010A000002002401148016801220A4302604168A1
:1010B0000F4A0A40426001680E4A0A400260016815
:1010C0000D4A0A40026041680C4A0A404260C16A07
:1010D0000F229143C162016B094A0A400263416BCE
:1010E000012291434163002181607047001002405A
:1010F0000CB8FF08FFFFF6FEFFFFFBFFFFFFC0FF7E
:10110000ECFEFFFF000000000000000001020304ED
:101110000607080970B40123002413E00168001DCC
:10112000194202D04D466D1E49190C60091D121F4F
:10113000042AFAD20D00960701D50C80AD1C1A4086
:1011400000D02C700268001D002AE7D170BC7047E7
:1011500030B401220168001D00290FD00368C318B4
:1011600044680830144202D04D466D1E64191D6853
:1011700025601B1D241D091FECD0F8E730BC70470B
:1011800010B5074979441831064C7C44163404E004
:10119000081D0A68891888470100A142F8D110BDCE
:1011A00008000000280000006DFFFFFF5400000051
:1011B000040000200000000099FFFFFF0400000071
:1011C00094000000000000200000000000F00DF876
:1011D000002801D0FFF7D4FF00BF00BF002000BFF0
:1011E00000BFFFF7EDFD00F002F80120704780B569
:1011F00000F002F801BDFEE70746384600F002F8AD
:10120000FBE7FEE780B500BF00BF024A11001820CF
:10121000ABBEFBE7260002000148804701480047BB
:10122000A51000084912000802480168491C016025
:10123000704700BF540000207047FEE770477047BA
:1012400080B5FFF7F1FF01BD00BF00BF00BF00BFC9
:10125000FFF7BCFF00127A00FEE7FEE7FEE7FEE7BD
:10126000FEE7FEE7FEE7FEE7FEE7FEE7FEE7FEE756
:08127000FEE7FEE7FEE7FEE7E2
:040000050800124994
:00000001FF
